:100000000C94A3000C94D8000C94D8000C94D80045
:100010000C94D8000C94D8000C94D8000C9455057E
:100020000C94D8000C94D8000C94D8000C94D800F0
:100030000C94D8000C94D8000C94D8000C94D800E0
:100040000C940B050C94D8000C94D9040C94B304B4
:100050000C94D8000C94D8000C94D8000C94D800C0
:100060000C94D8000C94D80007634236B79BD8A7ED
:100070001A39685618AEBAAB558C1D3CB7CC5763CD
:10008000BD6DEDFD753EF6177231BF000000803F7B
:1000900008000000BE922449123EABAAAA2ABECD97
:1000A000CCCC4C3E00000080BEABAAAAAA3E000009
:1000B0000000BF000000803F000000000008417801
:1000C000D3BB4387D1133D190E3CC3BD4282AD2B38
:1000D0003E68EC8276BED98FE1A93E4C80EFFFBE30
:1000E00001C4FF7F3F00000000000000000023006B
:1000F0002600290000000008000201000003040798
:1001000000000000000000000000000025002800A2
:100110002B0000000000240027002A00040404042F
:1001200004040404020202020202030303030303A1
:10013000010204081020408001020408102001027E
:1001400004081020450684B7805009F4822D11243C
:1001500014BE08E100936000109260008093E502F5
:1001600011241FBECFEFD8E0DEBFCDBF11E0A0E06D
:10017000B1E0EAE4F9E102C005900D92A433B107C1
:10018000D9F722E0A4E3B1E001C01D92A53EB20779
:10019000E1F710E0C3EAD0E004C02197FE010E941D
:1001A0008F0CC23AD107C9F70E94AF060C94A30C7A
:1001B0000C940000CF93DF93DC01ED91FC9111973B
:1001C0003697C081D181C80FD91F3B858091C50268
:1001D000381708F04AC09091C3028091C402E92FF9
:1001E000F82FE30FF11DE30FF11D40815181232F03
:1001F0002095217090E04D3481E0580790F04D3209
:10020000E2E05E07B8F04A39F2E05F0750F04835A7
:1002100084E0580788F0FA01E75EF340EC39F240D9
:1002200068F08A85882319F1313009F54C3B51403B
:10023000F0F405C031E003C032E001C033E0FB015F
:1002400080818F5F831710F4808313C0FB011082BD
:10025000ED91FC911197369740815181FD01E40F9A
:10026000F51F83858F5F838704C021E001C022E0F2
:1002700090E0822FDF91CF910895FC01918D828DC6
:10028000981761F0828DDF01A80FB11D5D968C91EA
:10029000928D9F5F9F73928F90E008958FEF9FEFF5
:1002A0000895FC01918D828D981731F0828DE80FB1
:1002B000F11D858D90E008958FEF9FEF0895FC016B
:1002C000918D228D892F90E0805C9F4F821B910938
:1002D0008F7399270895FC01848DDF01A80FB11D4C
:1002E000A35ABF4F2C91848D90E001968F7399276C
:1002F000848FA689B7892C93A089B1898C91806459
:100300008C93938D848D981306C00288F389E02D19
:1003100080818F7D80830895EF92FF920F931F93CA
:10032000CF93DF93EC0181E0888F9B8D8C8D9813A8
:1003300005C0E889F989808185FD24C0F62E0B8DE2
:1003400010E00F5F1F4F0F731127E02E8C8DE81206
:100350000CC00FB607FCFACFE889F989808185FFC8
:10036000F5CFCE010E946B01F1CF8B8DFE01E80F1E
:10037000F11DE35AFF4FF0820B8FEA89FB898081E0
:10038000806207C0EE89FF896083E889F9898081EE
:100390008064808381E090E0DF91CF911F910F9185
:1003A000FF90EF900895CF93DF93EC01888D882321
:1003B000C9F0EA89FB89808185FD05C0A889B989D2
:1003C0008C9186FD0FC00FB607FCF5CF808185FFAD
:1003D000F2CFA889B9898C9185FFEDCFCE010E941B
:1003E0006B01E7CFDF91CF91089583E591E00E9403
:1003F0005F0121E0892B09F420E0822F089580E03D
:1004000090E0892B29F00E94F50181110C940000E5
:100410000895CF92DF92EF92FF920F931F93CF93A5
:10042000DF936C017A018B01C0E0D0E0CE15DF05CF
:1004300089F0D8016D918D01D601ED91FC9101906B
:10044000F081E02DC6010995892B11F47E0102C0CF
:100450002196ECCFC701DF91CF911F910F91FF90B3
:10046000EF90DF90CF900895833081F028F48130B1
:1004700099F08230A1F008958730A9F08830B9F062
:100480008430D1F4809180008F7D03C08091800002
:100490008F7780938000089584B58F7702C084B5EC
:1004A0008F7D84BD08958091B0008F7703C08091C7
:1004B000B0008F7D8093B00008951F93CF93DF939A
:1004C000282F30E0F901EC50FF4F8491F901E05DF5
:1004D000FE4FD491F901E45EFE4FC491CC23C9F0E4
:1004E000162F81110E943402EC2FF0E0EE0FFF1F57
:1004F000E85FFE4FA591B4918FB7F894111105C034
:100500009C91ED2FE095E92302C0EC91ED2BEC934B
:100510008FBFDF91CF911F9108953FB7F8948091DD
:100520003A0190913B01A0913C01B0913D0126B56B
:10053000A89B05C02F3F19F00196A11DB11D3FBF1B
:10054000BA2FA92F982F8827820F911DA11DB11DA9
:10055000BC01CD0142E0660F771F881F991F4A95A5
:10056000D1F708952FB7F894609136017091370153
:1005700080913801909139012FBF0895E0EFF1E0AB
:100580001782118684E08093CA020895CF93DF9387
:100590008091F00190E0FC01E05DFE4F2491FC01B0
:1005A000E45EFE4F84918823C1F090E0880F991F8C
:1005B000FC01EE5EFE4FC591D491FC01E85FFE4F59
:1005C000A591B4919FB7F8943881822F80958323A9
:1005D0008883EC91E22BEC939FBF1092C20281E0E2
:1005E0008093CA0210923401DF91CF910895FC01EB
:1005F0001282138214821582168210861782118647
:100600000895109270000C94BE022091F8012111FF
:1006100023C021E02093F7012091CA02243021F069
:10062000209134012223C1F00E94C6021092C6021A
:100630001092C7021092C8021092C902F89482E088
:100640008093B0008093B10094E69093B300109231
:10065000B2008093700078940895EF92FF920F9308
:100660001F93CF93DF93EC01E881F9813897808164
:1006700091818C0F9D1FDC01ED91FC910190F08127
:10068000E02D09958091C502873110F480E02EC1DC
:100690008091C5028E34D0F7E881F98138970190B6
:1006A000F081E02DEC0FFD1F8285A091C302B09177
:1006B000C40281110EC012968D919C9113978F3CAC
:1006C000974020F312968D919C91139786309D4010
:1006D000E8F614968D919C9115978A399240B0F264
:1006E00014968D919C9115978935944078F683E006
:1006F0008387E881F98136970190F081E02DEC0F36
:10070000FD1F14821582168217821382E881F981F7
:100710003697808191818C0F9D1FBC016D5F7F4F4B
:100720000E94DA00892B09F0B1CFE881F981369770
:10073000808191818C0F9D1FBC016D5F7F4F0E9456
:10074000DA00019709F0A2CFE881F981369701908C
:10075000F081E02DEC0FFD1F1282E881F98180917C
:10076000C502DF0118970D90BC91A02DAC0FBD1FE5
:100770001B969C913697981708F082C080819181D2
:100780008C0F9D1FBC016D5F7F4F0E94DA008C01B2
:10079000E881F98136970190F081E02DEC0FFD1F83
:1007A00082818330C9F0E881F98136978081918117
:1007B0008C0F9D1FBC016D5F7F4F0E94DA007C0192
:1007C000E881F98136970190F081E02DEC0FFD1F53
:1007D00082818330A9F40AC0BF016D5F7F4FCF01D2
:1007E0000E94DA0008171907F1F250CFBF016D5FC0
:1007F0007F4FCF010E94DA00E816F90609F046CFD4
:1008000001151105B1F4EA94EF2809F03FCFE88112
:10081000F98136970190F081E02DEC0FFD1F848166
:100820009581A681B781880F991FAA1FBB1F816080
:1008300017C00130110509F029CFEF2809F026CFA4
:10084000E881F98136970190F081E02DEC0FFD1FD2
:1008500084819581A681B781880F991FAA1FBB1F2C
:1008600084839583A683B783E881F98136970190C5
:10087000F081E02DEC0FFD1F82818F5F82836DCFB1
:100880000190F081E02DEC0FFD1F8281843211F484
:1008900080E2828388819981FC0136970190F08102
:1008A000E02DEC0FFD1F2281FC0138970190F081B3
:1008B000E02DEC0FFD1F218788819981FC0138977D
:1008C0000190F081E02DEC0FFD1FDC0116978D915A
:1008D0009C91C80FD91F8C819D81AE81BF8183837C
:1008E0009483A583B68384E0828381E0DF91CF91F6
:1008F0001F910F91FF90EF900895DC01ED91FC9115
:100900003C9720813181820F931F0C942D030E940C
:10091000950CCF93C1E0C093F80184E08093CA02A4
:100920008091F1018823E9F08091F7018823C9F0D3
:100930004091C20250E0440F551F6AEF71E0809170
:10094000C3029091C4020E949A0C8091C2028093CB
:10095000C5021092F701C093F9011092C202C09330
:10096000CA02CF9108951F920F920FB60F921124D1
:100970002F933F934F935F936F937F938F939F93A7
:10098000AF93BF93EF93FF9383E591E00E946B01D8
:10099000FF91EF91BF91AF919F918F917F916F9157
:1009A0005F914F913F912F910F900FBE0F901F902D
:1009B00018951F920F920FB60F9211242F938F93B9
:1009C0009F93EF93FF93E0916301F0916401808125
:1009D000E0916901F0916A0182FD12C090818091DD
:1009E0006C018F5F8F7320916D01821751F0E09140
:1009F0006C01F0E0ED5AFE4F958F80936C0101C0C1
:100A00008081FF91EF919F918F912F910F900FBE59
:100A10000F901F9018951F920F920FB60F921124EE
:100A20002F933F938F939F93AF93BF938091360102
:100A300090913701A0913801B09139013091350181
:100A400023E0230F2D3720F40196A11DB11D05C011
:100A500026E8230F0296A11DB11D20933501809336
:100A6000360190933701A0933801B09339018091FA
:100A70003A0190913B01A0913C01B0913D0101965A
:100A8000A11DB11D80933A0190933B01A0933C01BD
:100A9000B0933D01BF91AF919F918F913F912F9165
:100AA0000F900FBE0F901F90189578941F920F9281
:100AB0000FB60F9211242F933F934F935F936F9331
:100AC0007F938F939F93AF93BF93CF93DF93EF93D6
:100AD000FF932091F00130E0F901EC50FF4F849139
:100AE000F901E05DFE4FD491F901E45EFE4FC4913F
:100AF000CC23A1F081110E943402EC2FF0E0EE0F24
:100B0000FF1FE651FF4FA591B491EC91ED2391E0C9
:100B100080E009F490E0C92FD82F02C0C0E0D0E0F7
:100B20008091C6029091C702A091C802B091C902FB
:100B30000196A11DB11D8093C6029093C702A09398
:100B4000C802B093C9028091C202843618F084E0D2
:100B50000E9489048091CA02823081F018F48130A9
:100B600039F072C0833071F1843009F463C06CC015
:100B7000CD2B09F069C01092C20226C0219709F05E
:100B800063C0E091C20281E08E0F8093C202F0E068
:100B90008091C6029091C702A091C802B091C9028B
:100BA000EE0FFF1FE650FE4F918380831092C60226
:100BB0001092C7021092C8021092C90283E080937B
:100BC000CA0242C0CD2BF9F4E091C20281E08E0F3F
:100BD0008093C202F0E08091C6029091C702A0917A
:100BE000C802B091C902EE0FFF1FE650FE4F91837D
:100BF00080831092C6021092C7021092C80210920F
:100C0000C90282E0DCCF4091C6025091C7026091D8
:100C1000C8027091C9028091F4019091F501A0E0A1
:100C2000B0E084179507A607B70770F485E00E9427
:100C300089040AC0CD2B41F41092C6021092C7025B
:100C40001092C8021092C9028091F601882351F0D7
:100C50008091C20280FF02C061E001C060E08DE0CF
:100C60000E945D02FF91EF91DF91CF91BF91AF9113
:100C70009F918F917F916F915F914F913F912F91B4
:100C80000F900FBE0F901F901895E3E5F1E01382CF
:100C9000128288EE93E0A0E0B0E084839583A6837F
:100CA000B78384E091E09183808385EC90E0958721
:100CB000848784EC90E09787868780EC90E0918B26
:100CC000808B81EC90E0938B828B82EC90E0958B13
:100CD000848B86EC90E0978B868B118E128E138E10
:100CE000148EE0EFF1E082E0808317828AEF91E0DA
:100CF0009093C4028093C302118288E79EE193839C
:100D000082838CE990E095838483A1EEB2E082E354
:100D100090E013969C938E9312971086168284E02F
:100D20008093CA0280E391E08D939C931782EBEC51
:100D3000F2E0148A1486158616861786108A128A9F
:100D4000118A138A8CE191E09183808384E291E09F
:100D5000938382838AE291E09387828708957894CF
:100D600084B5826084BD84B5816084BD85B58260B0
:100D700085BD85B5816085BD80916E008160809361
:100D80006E001092810080918100826080938100CA
:100D900080918100816080938100809180008160DA
:100DA000809380008091B10084608093B100809135
:100DB000B00081608093B00080917A00846080935D
:100DC0007A0080917A00826080937A0080917A0024
:100DD000816080937A0080917A00806880937A00A5
:100DE0001092C100109280001092810010926F004A
:100DF00016BA8FEF9FE09093870080938600109241
:100E000089001092880010928B0010928A008091C5
:100E10008100816080938100809180008260809356
:100E2000800080918100886180938100E9E3F1E096
:100E30002491E5E2F1E08491882399F090E0880F15
:100E4000991FFC01EE5EFE4FA591B491FC01E85F95
:100E5000FE4F859194918FB7F894EC91E22BEC932F
:100E60008FBF81EE92E00E940503C2E3D4E610E456
:100E700001E08091F801882309F4B7C01092F801CD
:100E80008091F9016091C3027091C402882321F01E
:100E9000AB011092F90106C08091C2028093C50295
:100EA0004AEF51E020E08091C502281700F5822F1B
:100EB00090E0880F991FFB01E80FF91FDA01A80FD6
:100EC000B91F8D919C91C89FD001C99FB00D11246D
:100ED0008091E3029091E40220FF03C091958195F7
:100EE00091098A0F9B1F918380832F5FDCCF109223
:100EF000F7018BEC92E00E947D04882309F471C015
:100F00008091D8029091D902A091DA02B091DB02CF
:100F10008D3524E092072FE0A20720E8B20709F4FC
:100F200049C070F48B3524E092072FE0A20720E837
:100F3000B207D9F08C359440AF40B04891F147C02A
:100F40008C3524E892072FE0A20720E8B20749F188
:100F50008D3524E892072FE0A20720E8B20751F16F
:100F60008B359448AF40B04891F50E94B202C090D2
:100F70004F01D0905001E0905101F090520128ECC7
:100F8000C20ED11CE11CF11CC616D706E806F906F4
:100F9000F0F480914E01811102C084E616C080E019
:100FA00014C080914E01863010F085500EC0109212
:100FB0004E010DC080914E01282F30E020363105C2
:100FC0001CF0D0934E0103C08B5F80934E010E94B2
:100FD000B20260934F01709350018093510190933E
:100FE000520181EE92E00E94050310937C008091F3
:100FF0007A00806480937A0080917A00982F9074B0
:10100000F92E86FDF9CF809178002091790090E04B
:10101000922B90934D0180934C01853823E09207E9
:1010200088F080914B01811120C00E94B202609330
:101030004701709348018093490190934A010093BE
:101040004B0113C08438934081F080914B01882379
:1010500061F00E94B202609347017093480180934F
:10106000490190934A0110924B0180914701909160
:101070004801A0914901B0914A01892B8A2B8B2B01
:1010800019F580914B01882311F084E6F82EF09237
:101090004E010E948D026B017C010E948D02DC01D9
:1010A000CB018C199D09AE09BF09883E9340A1056B
:1010B000B10598F30E94B202609347017093480112
:1010C0008093490190934A010E94B202C09043016B
:1010D000D0904401E0904501F0904601DC01CB0145
:1010E0008C199D09AE09BF090B97A105B10508F43C
:1010F0007EC00E94B20260934301709344018093CA
:1011000045019093460190914E01809142018917CB
:1011100010F48F5F03C0981718F481508093420138
:1011200060914201653610F064E602C06930C0F09B
:1011300070E080E090E00E94110A20E030E040E89A
:1011400051E40E94FB0820E030E048EE52E40E94A7
:10115000670920E030E040E450E40E940A0B0BC035
:1011600070E080E090E00E94110A23E333ED41E655
:1011700054E40E94670960933E0170933F0180939D
:1011800040019093410120E030EF4FE755E460913A
:101190003E0170913F0180914001909141010E9478
:1011A0009D0A0E94D9096B017C01672B51F4809143
:1011B00080008F778093800060E082E00E945D0273
:1011C0000BC08091880090918900892B29F480912F
:1011D0008000806880938000C601C11420E1D2069F
:1011E00010F08FEF9FE090938900809388000E9419
:1011F000FF013FCE5058BB27AA270E9412090C942A
:10120000630A0E94550A38F00E945C0A20F039F403
:101210009F3F19F426F40C94520A0EF4E095E7FB74
:101220000C944C0AE92F0E94740A58F3BA1762070B
:1012300073078407950720F079F4A6F50C94960AB5
:101240000EF4E0950B2EBA2FA02D0B01B9019001E1
:101250000C01CA01A0011124FF27591B99F0593F25
:1012600050F4503E68F11A16F040A22F232F342F6D
:101270004427585FF3CF469537952795A795F040BB
:101280005395C9F77EF41F16BA0B620B730B840BD0
:10129000BAF09150A1F0FF0FBB1F661F771F881F88
:1012A000C2F70EC0BA0F621F731F841F48F48795E0
:1012B00077956795B795F7959E3F08F0B0CF9395D2
:1012C000880F08F09927EE0F9795879508950E944B
:1012D0007B090C94630A0E945C0A58F00E94550A2C
:1012E00040F029F45F3F29F00C944C0A51110C9402
:1012F000970A0C94520A0E94740A68F39923B1F376
:10130000552391F3951B550BBB27AA27621773072B
:10131000840738F09F5F5F4F220F331F441FAA1FBF
:10132000A9F335D00E2E3AF0E0E832D0915050407B
:10133000E695001CCAF72BD0FE2F29D0660F771F29
:10134000881FBB1F261737074807AB07B0E809F00F
:10135000BB0B802DBF01FF2793585F4F3AF09E3F94
:10136000510578F00C944C0A0C94970A5F3FE4F313
:10137000983ED4F3869577956795B795F7959F5FD7
:10138000C9F7880F911D9695879597F90895E1E023
:10139000660F771F881FBB1F621773078407BA0782
:1013A00020F0621B730B840BBA0BEE1F88F7E095DD
:1013B00008950E94E0096894B1110C94970A089569
:1013C0000E947C0A88F09F5798F0B92F9927B7514F
:1013D000B0F0E1F0660F771F881F991F1AF0BA95D9
:1013E000C9F714C0B13091F00E94960AB1E0089597
:1013F0000C94960A672F782F8827B85F39F0B93F89
:10140000CCF3869577956795B395D9F73EF490958B
:101410008095709561957F4F8F4F9F4F0895E89409
:1014200009C097FB3EF490958095709561957F4F2C
:101430008F4F9F4F9923A9F0F92F96E9BB279395DA
:10144000F695879577956795B795F111F8CFFAF4EA
:10145000BB0F11F460FF1BC06F5F7F4F8F4F9F4F1B
:1014600016C0882311F096E911C0772321F09EE879
:10147000872F762F05C0662371F096E8862F70E0DF
:1014800060E02AF09A95660F771F881FDAF7880FB9
:101490009695879597F9089597F99F6780E870E08A
:1014A00060E008959FEF80EC089500240A941616DA
:1014B000170618060906089500240A941216130642
:1014C000140605060895092E0394000C11F48823D0
:1014D00052F0BB0F40F4BF2B11F460FF04C06F5FEC
:1014E0007F4F8F4F9F4F089557FD9058440F551FC2
:1014F00059F05F3F71F04795880F97FB991F61F096
:101500009F3F79F087950895121613061406551F0C
:10151000F2CF4695F1DF08C0161617061806991F78
:10152000F1CF86957105610508940895E894BB276D
:1015300066277727CB0197F908950E94B00A0C948B
:10154000630A0E94550A38F00E945C0A20F0952335
:1015500011F00C944C0A0C94520A11240C94970A22
:101560000E94740A70F3959FC1F3950F50E0551FC8
:10157000629FF001729FBB27F00DB11D639FAA27E8
:10158000F00DB11DAA1F649F6627B00DA11D661F37
:10159000829F2227B00DA11D621F739FB00DA11D58
:1015A000621F839FA00D611D221F749F3327A00D12
:1015B000611D231F849F600D211D822F762F6A2FAE
:1015C00011249F5750409AF0F1F088234AF0EE0F13
:1015D000FF1FBB1F661F771F881F91505040A9F740
:1015E0009E3F510580F00C944C0A0C94970A5F3F83
:1015F000E4F3983ED4F3869577956795B795F7957C
:10160000E7959F5FC1F7FE2B880F911D96958795F3
:1016100097F90895FA01EE0FFF1F30962105310565
:10162000A1F16115710561F48038BFE39B0749F1B1
:1016300068949038810561F08038BFEF9B0741F0D6
:1016400099234AF5FF3FE1053105210519F1E89499
:101650000894E795D901AA2329F4AB2FBE2FF85F90
:10166000D0F310C0FF5F70F4A695E0F7F73950F0A3
:1016700019F0FF3A38F49F779F930DD00F9007FC35
:101680009058089546F00C94520A60E070E080E8AB
:101690009FE308954FE79F775F934F933F932F9377
:1016A0000E94050C2F913F914F915F910E949D0ADE
:1016B0000C94620B29F416F00C944C0A0C94960AC4
:1016C0000C94520A0E947C0AA8F39638A0F707F8F7
:1016D0000F92E8942BE33AEA48EB5FE70E94B30AE3
:1016E0000F920F920F924DB75EB70F920E944D0C62
:1016F000E8E6F0E00E94940B4F915F91EF91FF912B
:10170000E595EE1FFF1F49F0FE57E0684427EE0FF6
:10171000441FFA95E1F74195550B0E94C70B0F90B6
:1017200007FE0C94BB0B0895DF93CF931F930F9389
:10173000FF92EF92DF927B018C01689406C0DA2E53
:10174000EF010E94B00AFE01E894A5912591359120
:1017500045915591A6F3EF010E941209FE019701F0
:10176000A801DA9469F7DF90EF90FF900F911F9135
:10177000CF91DF9108959B01AC0160E070E080E8BB
:101780009FE30C9467090C944C0A0C94810C0E9402
:101790007C0AD8F39923C9F3940F511DA3F39150F8
:1017A000504094F059F0882332F0660F771F881F5D
:1017B00091505040C1F79E3F51052CF7880F911D65
:1017C0009695879597F908955F3FACF0983E9CF009
:1017D000BB27869577956795B79508F4B160939583
:1017E000C1F7BB0F58F711F460FFE8CF6F5F7F4F71
:1017F0008F4F9F4FE3CF0C94970A16F00C94810CF7
:101800000C94520A68940C944C0A0E947C0AA8F327
:101810009923C1F3AEF3DF93CF931F930F93FF92FE
:10182000C92FDD2788232AF02197660F771F881F8D
:10183000DAF720E030E040E85FEB9FE3883920F002
:10184000803E38F021968F770E94FB08E0E9F0E0B7
:1018500004C00E94FB08EDEBF0E00E94940B8B01AA
:10186000BE01EC01FB2E6F5771097595771F880B30
:10187000990B0E94110A28E132E741E35FE30E94DD
:10188000B00AAF2D9801AE01FF900F911F91CF913B
:10189000DF910E9412090C94630AFA01DC01AA0F7D
:1018A000BB1F9B01AC01BF5728F4222733274427D5
:1018B000507820C0B75190F4AB2F0024469537954F
:1018C0002795011CA395D2F3002071F0220F331F3E
:1018D000441FB395DAF30ED00C94FA086130710509
:1018E000A0E88A07B94630F49B01AC016627772748
:1018F00088279078309621F0208331834283538368
:1019000008959F3F31F0915020F487957795679522
:10191000B795880F911D9695879597F90895EE0FC5
:10192000FF1F0590F491E02D099481E090E0F89478
:101930000C94A30CFB01DC0102C001900D924150FC
:0A1940005040D8F70895F894FFCF47
:10194A00000000008C0109025F013D015101D30131
:10195A00000000000A000200000000007D040800E8
:10196A00FEFF00000000F6FF0000F7020000000082
:04197A00050301035D
:00000001FF
